{
  "_format": "hh-sol-artifact-1",
  "contractName": "Dappazon",
  "sourceName": "contracts/Dappazon.sol",
  "abi": [
    {
      "inputs": [],
      "stateMutability": "nonpayable",
      "type": "constructor"
    },
    {
      "anonymous": false,
      "inputs": [
        {
          "indexed": false,
          "internalType": "address",
          "name": "buyer",
          "type": "address"
        },
        {
          "indexed": false,
          "internalType": "uint256",
          "name": "orderId",
          "type": "uint256"
        },
        {
          "indexed": false,
          "internalType": "uint256",
          "name": "itemId",
          "type": "uint256"
        }
      ],
      "name": "Buy",
      "type": "event"
    },
    {
      "anonymous": false,
      "inputs": [
        {
          "indexed": false,
          "internalType": "string",
          "name": "name",
          "type": "string"
        },
        {
          "indexed": false,
          "internalType": "uint256",
          "name": "cost",
          "type": "uint256"
        },
        {
          "indexed": false,
          "internalType": "uint256",
          "name": "quantity",
          "type": "uint256"
        }
      ],
      "name": "List",
      "type": "event"
    },
    {
      "inputs": [
        {
          "internalType": "uint256",
          "name": "id",
          "type": "uint256"
        }
      ],
      "name": "buy",
      "outputs": [],
      "stateMutability": "payable",
      "type": "function"
    },
    {
      "inputs": [
        {
          "internalType": "uint256",
          "name": "",
          "type": "uint256"
        }
      ],
      "name": "items",
      "outputs": [
        {
          "internalType": "uint256",
          "name": "id",
          "type": "uint256"
        },
        {
          "internalType": "string",
          "name": "name",
          "type": "string"
        },
        {
          "internalType": "string",
          "name": "category",
          "type": "string"
        },
        {
          "internalType": "string",
          "name": "image",
          "type": "string"
        },
        {
          "internalType": "uint256",
          "name": "cost",
          "type": "uint256"
        },
        {
          "internalType": "uint256",
          "name": "rating",
          "type": "uint256"
        },
        {
          "internalType": "uint256",
          "name": "stock",
          "type": "uint256"
        }
      ],
      "stateMutability": "view",
      "type": "function"
    },
    {
      "inputs": [
        {
          "internalType": "uint256",
          "name": "id",
          "type": "uint256"
        },
        {
          "internalType": "string",
          "name": "name",
          "type": "string"
        },
        {
          "internalType": "string",
          "name": "category",
          "type": "string"
        },
        {
          "internalType": "string",
          "name": "image",
          "type": "string"
        },
        {
          "internalType": "uint256",
          "name": "cost",
          "type": "uint256"
        },
        {
          "internalType": "uint256",
          "name": "rating",
          "type": "uint256"
        },
        {
          "internalType": "uint256",
          "name": "stock",
          "type": "uint256"
        }
      ],
      "name": "list",
      "outputs": [],
      "stateMutability": "nonpayable",
      "type": "function"
    },
    {
      "inputs": [
        {
          "internalType": "address",
          "name": "",
          "type": "address"
        }
      ],
      "name": "orderCount",
      "outputs": [
        {
          "internalType": "uint256",
          "name": "",
          "type": "uint256"
        }
      ],
      "stateMutability": "view",
      "type": "function"
    },
    {
      "inputs": [
        {
          "internalType": "address",
          "name": "",
          "type": "address"
        },
        {
          "internalType": "uint256",
          "name": "",
          "type": "uint256"
        }
      ],
      "name": "orders",
      "outputs": [
        {
          "internalType": "uint256",
          "name": "time",
          "type": "uint256"
        },
        {
          "components": [
            {
              "internalType": "uint256",
              "name": "id",
              "type": "uint256"
            },
            {
              "internalType": "string",
              "name": "name",
              "type": "string"
            },
            {
              "internalType": "string",
              "name": "category",
              "type": "string"
            },
            {
              "internalType": "string",
              "name": "image",
              "type": "string"
            },
            {
              "internalType": "uint256",
              "name": "cost",
              "type": "uint256"
            },
            {
              "internalType": "uint256",
              "name": "rating",
              "type": "uint256"
            },
            {
              "internalType": "uint256",
              "name": "stock",
              "type": "uint256"
            }
          ],
          "internalType": "struct Dappazon.Item",
          "name": "item",
          "type": "tuple"
        }
      ],
      "stateMutability": "view",
      "type": "function"
    },
    {
      "inputs": [],
      "name": "owner",
      "outputs": [
        {
          "internalType": "address",
          "name": "",
          "type": "address"
        }
      ],
      "stateMutability": "view",
      "type": "function"
    },
    {
      "inputs": [],
      "name": "withdraw",
      "outputs": [],
      "stateMutability": "nonpayable",
      "type": "function"
    }
  ],
  "bytecode": "0x608060405234801561001057600080fd5b50336000806101000a81548173ffffffffffffffffffffffffffffffffffffffff021916908373ffffffffffffffffffffffffffffffffffffffff160217905550611713806100606000396000f3fe6080604052600436106100705760003560e01c80638da5cb5b1161004e5780638da5cb5b14610107578063bfb231d214610132578063d96a094a14610175578063eea8a7e81461019157610070565b80633ccfd60b14610075578063713d856b1461008c578063793b8c6d146100c9575b600080fd5b34801561008157600080fd5b5061008a6101ba565b005b34801561009857600080fd5b506100b360048036038101906100ae9190610d03565b6102ac565b6040516100c09190610d49565b60405180910390f35b3480156100d557600080fd5b506100f060048036038101906100eb9190610d90565b6102c4565b6040516100fe929190610f19565b60405180910390f35b34801561011357600080fd5b5061011c6104dd565b6040516101299190610f58565b60405180910390f35b34801561013e57600080fd5b5061015960048036038101906101549190610f73565b610501565b60405161016c9796959493929190610fea565b60405180910390f35b61018f600480360381019061018a9190610f73565b6106db565b005b34801561019d57600080fd5b506101b860048036038101906101b391906111a3565b610b3c565b005b60008054906101000a900473ffffffffffffffffffffffffffffffffffffffff1673ffffffffffffffffffffffffffffffffffffffff163373ffffffffffffffffffffffffffffffffffffffff161461021257600080fd5b60008060009054906101000a900473ffffffffffffffffffffffffffffffffffffffff1673ffffffffffffffffffffffffffffffffffffffff1647604051610259906112ca565b60006040518083038185875af1925050503d8060008114610296576040519150601f19603f3d011682016040523d82523d6000602084013e61029b565b606091505b50509050806102a957600080fd5b50565b60026020528060005260406000206000915090505481565b600360205281600052604060002060205280600052604060002060009150915050806000015490806001016040518060e0016040529081600082015481526020016001820180546103149061130e565b80601f01602080910402602001604051908101604052809291908181526020018280546103409061130e565b801561038d5780601f106103625761010080835404028352916020019161038d565b820191906000526020600020905b81548152906001019060200180831161037057829003601f168201915b505050505081526020016002820180546103a69061130e565b80601f01602080910402602001604051908101604052809291908181526020018280546103d29061130e565b801561041f5780601f106103f45761010080835404028352916020019161041f565b820191906000526020600020905b81548152906001019060200180831161040257829003601f168201915b505050505081526020016003820180546104389061130e565b80601f01602080910402602001604051908101604052809291908181526020018280546104649061130e565b80156104b15780601f10610486576101008083540402835291602001916104b1565b820191906000526020600020905b81548152906001019060200180831161049457829003601f168201915b505050505081526020016004820154815260200160058201548152602001600682015481525050905082565b60008054906101000a900473ffffffffffffffffffffffffffffffffffffffff1681565b600160205280600052604060002060009150905080600001549080600101805461052a9061130e565b80601f01602080910402602001604051908101604052809291908181526020018280546105569061130e565b80156105a35780601f10610578576101008083540402835291602001916105a3565b820191906000526020600020905b81548152906001019060200180831161058657829003601f168201915b5050505050908060020180546105b89061130e565b80601f01602080910402602001604051908101604052809291908181526020018280546105e49061130e565b80156106315780601f1061060657610100808354040283529160200191610631565b820191906000526020600020905b81548152906001019060200180831161061457829003601f168201915b5050505050908060030180546106469061130e565b80601f01602080910402602001604051908101604052809291908181526020018280546106729061130e565b80156106bf5780601f10610694576101008083540402835291602001916106bf565b820191906000526020600020905b8154815290600101906020018083116106a257829003601f168201915b5050505050908060040154908060050154908060060154905087565b6000600160008381526020019081526020016000206040518060e0016040529081600082015481526020016001820180546107159061130e565b80601f01602080910402602001604051908101604052809291908181526020018280546107419061130e565b801561078e5780601f106107635761010080835404028352916020019161078e565b820191906000526020600020905b81548152906001019060200180831161077157829003601f168201915b505050505081526020016002820180546107a79061130e565b80601f01602080910402602001604051908101604052809291908181526020018280546107d39061130e565b80156108205780601f106107f557610100808354040283529160200191610820565b820191906000526020600020905b81548152906001019060200180831161080357829003601f168201915b505050505081526020016003820180546108399061130e565b80601f01602080910402602001604051908101604052809291908181526020018280546108659061130e565b80156108b25780601f10610887576101008083540402835291602001916108b2565b820191906000526020600020905b81548152906001019060200180831161089557829003601f168201915b505050505081526020016004820154815260200160058201548152602001600682015481525050905080608001513410156108ec57600080fd5b60008160c00151116108fd57600080fd5b60006040518060400160405280428152602001838152509050600260003373ffffffffffffffffffffffffffffffffffffffff1673ffffffffffffffffffffffffffffffffffffffff16815260200190815260200160002060008154809291906109669061136e565b919050555080600360003373ffffffffffffffffffffffffffffffffffffffff1673ffffffffffffffffffffffffffffffffffffffff1681526020019081526020016000206000600260003373ffffffffffffffffffffffffffffffffffffffff1673ffffffffffffffffffffffffffffffffffffffff16815260200190815260200160002054815260200190815260200160002060008201518160000155602082015181600101600082015181600001556020820151816001019081610a2d9190611562565b506040820151816002019081610a439190611562565b506060820151816003019081610a599190611562565b506080820151816004015560a0820151816005015560c082015181600601555050905050600180600085815260200190815260200160002060060154610a9f9190611634565b60016000858152602001908152602001600020600601819055507f1cbc5ab135991bd2b6a4b034a04aa2aa086dac1371cb9b16b8b5e2ed6b036bed33600260003373ffffffffffffffffffffffffffffffffffffffff1673ffffffffffffffffffffffffffffffffffffffff168152602001908152602001600020548460000151604051610b2f93929190611668565b60405180910390a1505050565b60008054906101000a900473ffffffffffffffffffffffffffffffffffffffff1673ffffffffffffffffffffffffffffffffffffffff163373ffffffffffffffffffffffffffffffffffffffff1614610b9457600080fd5b60006040518060e0016040528089815260200188815260200187815260200186815260200185815260200184815260200183815250905080600160008a8152602001908152602001600020600082015181600001556020820151816001019081610bfe9190611562565b506040820151816002019081610c149190611562565b506060820151816003019081610c2a9190611562565b506080820151816004015560a0820151816005015560c082015181600601559050507ffdbe2a012c10ec01592653978eaa09b5ca60b143a0e617505b2ebcbd911ec5b8878584604051610c7f9392919061169f565b60405180910390a15050505050505050565b6000604051905090565b600080fd5b600080fd5b600073ffffffffffffffffffffffffffffffffffffffff82169050919050565b6000610cd082610ca5565b9050919050565b610ce081610cc5565b8114610ceb57600080fd5b50565b600081359050610cfd81610cd7565b92915050565b600060208284031215610d1957610d18610c9b565b5b6000610d2784828501610cee565b91505092915050565b6000819050919050565b610d4381610d30565b82525050565b6000602082019050610d5e6000830184610d3a565b92915050565b610d6d81610d30565b8114610d7857600080fd5b50565b600081359050610d8a81610d64565b92915050565b60008060408385031215610da757610da6610c9b565b5b6000610db585828601610cee565b9250506020610dc685828601610d7b565b9150509250929050565b610dd981610d30565b82525050565b600081519050919050565b600082825260208201905092915050565b60005b83811015610e19578082015181840152602081019050610dfe565b60008484015250505050565b6000601f19601f8301169050919050565b6000610e4182610ddf565b610e4b8185610dea565b9350610e5b818560208601610dfb565b610e6481610e25565b840191505092915050565b600060e083016000830151610e876000860182610dd0565b5060208301518482036020860152610e9f8282610e36565b91505060408301518482036040860152610eb98282610e36565b91505060608301518482036060860152610ed38282610e36565b9150506080830151610ee86080860182610dd0565b5060a0830151610efb60a0860182610dd0565b5060c0830151610f0e60c0860182610dd0565b508091505092915050565b6000604082019050610f2e6000830185610d3a565b8181036020830152610f408184610e6f565b90509392505050565b610f5281610cc5565b82525050565b6000602082019050610f6d6000830184610f49565b92915050565b600060208284031215610f8957610f88610c9b565b5b6000610f9784828501610d7b565b91505092915050565b600082825260208201905092915050565b6000610fbc82610ddf565b610fc68185610fa0565b9350610fd6818560208601610dfb565b610fdf81610e25565b840191505092915050565b600060e082019050610fff600083018a610d3a565b81810360208301526110118189610fb1565b905081810360408301526110258188610fb1565b905081810360608301526110398187610fb1565b90506110486080830186610d3a565b61105560a0830185610d3a565b61106260c0830184610d3a565b98975050505050505050565b600080fd5b600080fd5b7f4e487b7100000000000000000000000000000000000000000000000000000000600052604160045260246000fd5b6110b082610e25565b810181811067ffffffffffffffff821117156110cf576110ce611078565b5b80604052505050565b60006110e2610c91565b90506110ee82826110a7565b919050565b600067ffffffffffffffff82111561110e5761110d611078565b5b61111782610e25565b9050602081019050919050565b82818337600083830152505050565b6000611146611141846110f3565b6110d8565b90508281526020810184848401111561116257611161611073565b5b61116d848285611124565b509392505050565b600082601f83011261118a5761118961106e565b5b813561119a848260208601611133565b91505092915050565b600080600080600080600060e0888a0312156111c2576111c1610c9b565b5b60006111d08a828b01610d7b565b975050602088013567ffffffffffffffff8111156111f1576111f0610ca0565b5b6111fd8a828b01611175565b965050604088013567ffffffffffffffff81111561121e5761121d610ca0565b5b61122a8a828b01611175565b955050606088013567ffffffffffffffff81111561124b5761124a610ca0565b5b6112578a828b01611175565b94505060806112688a828b01610d7b565b93505060a06112798a828b01610d7b565b92505060c061128a8a828b01610d7b565b91505092959891949750929550565b600081905092915050565b50565b60006112b4600083611299565b91506112bf826112a4565b600082019050919050565b60006112d5826112a7565b9150819050919050565b7f4e487b7100000000000000000000000000000000000000000000000000000000600052602260045260246000fd5b6000600282049050600182168061132657607f821691505b602082108103611339576113386112df565b5b50919050565b7f4e487b7100000000000000000000000000000000000000000000000000000000600052601160045260246000fd5b600061137982610d30565b91507fffffffffffffffffffffffffffffffffffffffffffffffffffffffffffffffff82036113ab576113aa61133f565b5b600182019050919050565b60008190508160005260206000209050919050565b60006020601f8301049050919050565b600082821b905092915050565b6000600883026114187fffffffffffffffffffffffffffffffffffffffffffffffffffffffffffffffff826113db565b61142286836113db565b95508019841693508086168417925050509392505050565b6000819050919050565b600061145f61145a61145584610d30565b61143a565b610d30565b9050919050565b6000819050919050565b61147983611444565b61148d61148582611466565b8484546113e8565b825550505050565b600090565b6114a2611495565b6114ad818484611470565b505050565b5b818110156114d1576114c660008261149a565b6001810190506114b3565b5050565b601f821115611516576114e7816113b6565b6114f0846113cb565b810160208510156114ff578190505b61151361150b856113cb565b8301826114b2565b50505b505050565b600082821c905092915050565b60006115396000198460080261151b565b1980831691505092915050565b60006115528383611528565b9150826002028217905092915050565b61156b82610ddf565b67ffffffffffffffff81111561158457611583611078565b5b61158e825461130e565b6115998282856114d5565b600060209050601f8311600181146115cc57600084156115ba578287015190505b6115c48582611546565b86555061162c565b601f1984166115da866113b6565b60005b82811015611602578489015182556001820191506020850194506020810190506115dd565b8683101561161f578489015161161b601f891682611528565b8355505b6001600288020188555050505b505050505050565b600061163f82610d30565b915061164a83610d30565b92508282039050818111156116625761166161133f565b5b92915050565b600060608201905061167d6000830186610f49565b61168a6020830185610d3a565b6116976040830184610d3a565b949350505050565b600060608201905081810360008301526116b98186610fb1565b90506116c86020830185610d3a565b6116d56040830184610d3a565b94935050505056fea264697066735822122003024cb904091f60c97279b1e721fda56099eacc056eb8b185c7d8b51fb49c3964736f6c63430008110033",
  "linkReferences": {},
  "deployedLinkReferences": {}
}